:020000040800F2
:10000000402600203D020008852B000885270008B7
:10001000B92A000853070008494C000800000000F6
:10002000000000000000000000000000212E000879
:10003000F5070008000000002D2C0008232E000802
:10004000570200085702000857020008570200082C
:10005000570200085702000857020008570200081C
:10006000570200085702000857020008570200080C
:1000700057020008570200085702000857020008FC
:1000800057020008570200085702000857020008EC
:1000900057020008570200085702000857020008DC
:1000A00057020008570200085702000857020008CC
:1000B000B12E0008ED300008570200085702000872
:1000C00057020008570200085702000857020008AC
:1000D000570200085702000857020008570200089C
:1000E00057020008570200085702000800000000ED
:1000F0000000000000000000000000000000000000
:10010000000000000000000011320008D12C00089F
:10011000570200085702000831320008B9330008BE
:10012000570200085702000857020008570200084B
:1001300057020008000000000000000057020008FD
:10014000570200085702000857020008892B0008D0
:1001500000F002F800F063F80AA090E8000C824476
:100160008344AAF10107DA4501D100F058F8AFF253
:10017000090EBAE80F0013F0010F18BFFB1A43F085
:1001800001031847245E0000445E00000A444FF05B
:10019000000C10F8013B13F0070408BF10F8014BE6
:1001A0001D1108BF10F8015B641E05D010F8016B2B
:1001B000641E01F8016BF9D113F0080F1EBF10F88F
:1001C000014BAD1C0C1B09D16D1E58BF01F801CBB2
:1001D000FAD505E014F8016B01F8016B6D1EF9D535
:1001E0009142D6D37047000000230024002500264A
:1001F000103A28BF78C1FBD8520728BF30C148BF8A
:100200000B6070471FB500F041FA04000020002188
:1002100004F09CFE401C60601FBD10B510BD00F0D6
:1002200010FA1146FFF7EEFF04F020FD00F040FA4F
:1002300003B4FFF7F2FF03BC00F084FA09488047DB
:1002400009480047FEE7FEE7FEE7FEE7FEE7FEE7B8
:10025000FEE7FEE7FEE7FEE704480549054A064BD0
:1002600070470000AD2E000851010008402000201A
:1002700040260020402200204022002053EA020CA9
:1002800000F069802DE9F04B4FF00006002B1FBFF6
:10029000B3FA83F503FA05F424FA05F65E4012BFBB
:1002A0001643B2FA82F502FA05F4C5F120051EBF25
:1002B00022FA05FC44EA0C04203556EA044C4FEAC5
:1002C000144418BF641C4FF000084FF0000990421E
:1002D00071EB030C39D3002919BFB1FA81F701FA88
:1002E00007F6B0FA80F700FA07F6C7F120071EBF3D
:1002F00020FA07FC46EA0C062037B6FBF4FCA7EB15
:100300000507103F07F01F0BCBF120060CFA0BFB83
:100310002CFA06F644BFB3460026202FA4BF5E4643
:100320004FF0000B5BEA060C08BF4FF0010B19EB16
:100330000B09ABFB027C48EB0608C01B06FB02CC9A
:100340000BFB03CC71EB0C01C1E70B4602464146A7
:100350004846BDE8F08B13B54FF000004FF00001A8
:10036000AFF30080BDE81C40704770B5064600F052
:10037000AFF80468054630460A22002100F0ACF8C8
:100380002C6070BD10B5431C02E010F8011B71B168
:100390008107FAD14FF0013202C88C1A8C4314EA5B
:1003A000C211F9D0C01A0A0603D0C01E10BDC01A6F
:1003B00010BD0A0401D0801E10BD0902FCD0401EF1
:1003C00010BD10B5203AC0F00B80B1E81850203AAB
:1003D000A0E81850B1E81850A0E81850BFF4F5AFE5
:1003E0005FEA027C24BFB1E81850A0E8185044BF6F
:1003F00018C918C0BDE810405FEA827C24BF51F8DC
:10040000043B40F8043B08BF7047D20728BF31F8CF
:10041000023B48BF11F8012B28BF20F8023B48BF20
:1004200000F8012B70474FF0000200B513469446C8
:100430009646203922BFA0E80C50A0E80C50B1F13C
:100440002001BFF4F7AF090728BFA0E80C5048BF50
:100450000CC05DF804EB890028BF40F8042B08BFEE
:10046000704748BF20F8022B11F0804F18BF00F8EA
:10047000012B704710B5044610F0030F08BF11F0B0
:10048000030F40F015804FF0013E121FC0F20E80A6
:1004900051F8043BA3EB0E0C2CEA030C1CEACE1C17
:1004A00008BF40F8043BF0D0A1F1040102F10402BE
:1004B000521E08DB11F8013B002B00F8013BF7D17D
:1004C000114600F041F8204610BD70477047704754
:1004D00000487047DC1F00202DE9F04791460F4689
:1004E00080460446002614F8015B2DB100F052F856
:1004F0000068405DC007F6D12B2D02D02D2D18D0FD
:10050000641E4A463946204600F04CF827B1396847
:10051000A14201D1C7F800804FF0020471050BD54C
:100520004042002803DDFFF7D3FF0460A007BDE8C9
:10053000F08746F48066E4E70028F8DAFFF7C8FFA2
:1005400004606FF00040F2E74FF000020429C0F0B1
:10055000128010F0030C3FF468AFCCF1040CBCF136
:10056000020F18BF00F8012BA8BF20F8022BA1EB47
:100570000C01FFF75ABF5FEAC17C24BF00F8012BD2
:1005800000F8012B48BF00F8012B70470048704766
:10059000DC1F002010B500F079F8001D10BD00BF71
:1005A000AD4900002DE9F05F824615468B460027D5
:1005B0000AF10104B9460078302801D09DB113E05A
:1005C00014F8010B0127782803D0582801D045B131
:1005D0000AE00DB1102D07D1002714F8010B1025EA
:1005E00002E0082500E00A250026B0460EE005FBE3
:1005F000080005FB06F101271FFA80F801EB104601
:10060000B6F5803F00D3B94614F8010B294600F037
:1006100041F80028EBDABBF1000F05D00FB1641EE2
:1006200000E05446CBF80040B9F1000F06D0FFF7C8
:100630004FFF02210160C81EBDE8F09F48EA064056
:10064000FAE77546FFF7A2FFAE4605006946534636
:1006500020F00700854618B020B5FFF7FDFDBDE886
:1006600020404FF000064FF000074FF000084FF019
:10067000000B21F00701AC46ACE8C009ACE8C009AA
:10068000ACE8C009ACE8C0098D4670470048704727
:10069000FC1F00203A2800D2303820F02002412AE6
:1006A00001D3A2F13700884201D34FF0FF307047E9
:1006B00010B50446AFF300802046BDE81040FFF7B8
:1006C000B7BD00004FF0013C50F8042B51F8043B3B
:1006D0009A4221D1A2EB0C03934313EACC1317D116
:1006E00050F8042B51F8043B9A4215D1A2EB0C03AD
:1006F000934313EACC130BD150F8042B51F8043B6D
:100700009A4209D1A2EB0C03934313EACC13DBD03A
:100710004FF00000704700BFD01A01BAB1FA81F162
:1007200001F0180122FA01F0CB40C1F12001DBB247
:10073000C0B2C01A2CFA01F3D11A914311EAC311C5
:10074000E6D1704701491820ABBEFEE72600020043
:100750007047FEE7002070470020704710B5002268
:100760000449054803F04AF80449034803F040F8F7
:10077000002010BDB8140020F40B0020B810002099
:100780002DE9F0410D46074601460C4803F030F8CC
:100790000C4C0B4E2A68206839463044401EFFF747
:1007A00069FE28682168084400212060315403480C
:1007B00003F002F80020BDE8F0810000F40B0020F7
:1007C0005002002020000020094A10B5D2F8B822BB
:1007D000D2F814220AB1012010BD0A46014604488D
:1007E00003F00CF8BDE81040014803F065B80000C4
:1007F000F40B0020704772B6FEE700002DE9F05FB1
:1008000090F821100024022903D0042181630124DF
:1008100085E001680A6822F00E020A6001680A6831
:1008200022F001020A603F4E3E4FB215DFF8F4C0DD
:10083000DFF8F090DFF8ECA0DFF8E8B0DFF8E4E0F4
:100840000168783F13011502ACF1640CA9F150095D
:10085000AAF13C0AABF1280BAEF1140E4FF480184C
:10086000B14227D9B9420ED0614512D049451DD0B9
:10087000514518D0594518D0714501D1424615E06F
:10088000294EB14201D1012210E0274E1436B14267
:1008900001D110220AE0244E2836B14206D0224A65
:1008A0003C32914201D11A4600E02A461E49091FF6
:1008B0000A602BE0B94213D0614517D0494522D0D8
:1008C00051451DD059451DD0714501D142461AE010
:1008D000B14202D14FF0807215E0134EB14201D106
:1008E000012210E0104E1436B14201D110220AE06C
:1008F0000D4E2836B14206D00B4A3C32914201D10E
:100900001A4600E02A46074980394A60012180F8EA
:100910002110002180F82010416B01B1884720464A
:10092000BDE8F09F800002400804024070B5044614
:1009300000F010F90546601C02D004480078044419
:1009400000F008F9401BA042FAD370BD200100203E
:100950002DE9F84FDFF8B8910024A9F1040B2346E4
:100960000F2709F1040AABF1040EC9E00125A540E7
:100970002A40AA427DD1674ED1F804C0ACEB0608EC
:10098000B44532D014DCBCF1030F3AD009DCBCF121
:10099000000F2AD0BCF1010F1CD0BCF1020F31D1E5
:1009A0001DE0BCF1110F17D0BCF1120F2AD119E0D4
:1009B000B8F5881F19D006DCB8F5803F15D0B8F51A
:1009C000801F1FD111E0B8F5001F0ED0B8F5041F2D
:1009D00018D10AE0CB6815E0CB681B1D12E0CB688C
:1009E00008330FE0CB680C330CE08B682BB1012B84
:1009F0004FF0080303D0456104E0042302E00561E1
:100A000000E00023FF2A01D8064601E000F10406B9
:100A10004FEA840501D9A5F12005D6F8008007FA30
:100A200005FC28EA0C0803FA05F548EA0508C6F8AB
:100A300000804D68ED0062D5374DAE6946F0010685
:100A4000AE61AD6924F0030605F001050095334D54
:100A500006EB050CDCF80850A607360F07FA06F877
:100A600025EA0805DFF8B880404503D14FF00008BB
:100A700017E044E0DFF8AC80404502D14FF00108B8
:100A80000FE0DFF8A480404502D14FF0020808E0F3
:100A9000DFF89880404502D14FF0030801E04FF0A5
:100AA000040808FA06F848EA0508CCF808804D68FA
:100AB000D9F80060ED024D4601D5164300E096439B
:100AC0002E604D68DAF80060AD02554601D5164338
:100AD00000E096432E604D68DBF80060AD035D4694
:100AE00001D5164300E096432E604D68DEF80060A5
:100AF000ED03754601D5164300E096432E60641C55
:100B00000D682A46E5407FF431AFBDE8F88F00005C
:100B100008040140000011100010024000000140D4
:100B200000080140000C0140001001400014014089
:100B30008068084000D001207047C26821EA0203A3
:100B40000A4043EA0241016170470AB101617047FE
:100B50000904FBE70148806870470000200100207D
:100B600002488168027811448160704720010020AA
:100B7000074810B5016841F010010160032000F042
:100B80006DF80F2000F006F800F024F8002010BDEA
:100B90000020024070B50D4D04464FF47A7128785C
:100BA000B1FBF0F00A490968B1FBF0F001F090FBED
:100BB00048B9102C07D200222146501E00F02EF812
:100BC00000206C6070BD012070BD0000200100207D
:100BD0002C010020094808B5816941F001018161BB
:100BE000816901F001010091C16941F08051C16149
:100BF000C06900F08050009008BD00000010024065
:100C0000002809DB00F01F0201219140400980000B
:100C100000F1E020C0F8001170470000F0B40E4B66
:100C20001B680C46C3F30223C3F10705042D00D94A
:100C30000425191D072901D2002300E0DB1E01262F
:100C400006FA05F1491E214099409E40761E164045
:100C50003143F0BC03F0F9BF0CED00E0064900F0B1
:100C6000070208684FF6FF03184040EA0220034AD3
:100C700010430860704700000CED00E00000FA052A
:100C80000068416200207047F0B50368586A39B1C6
:100C90009C6A4FF4827600EB144400204D1E0AE05B
:100CA00040EA024098620FE006EB8007DF59401CE3
:100CB00004EB1744C0B2A842F6D344EA02404FF412
:100CC000807202EB810158500020F0BDD0F8000581
:100CD00003F043B801EBC10200EB8202D0F800053B
:100CE000926C02F096BF01EBC10200EB8202D0F8D9
:100CF0000005D2F8882202F0EFBFD0F8000503F01B
:100D00002EB80A0601F00F0101EBC10100EB8101D1
:100D100001D53C3101E001F51F71006803F0E0BD31
:100D200070B504460B0601F00F0000EBC00104EBA8
:100D300081014FF001024FF0000503D581F83D20FD
:100D40003C3103E081F87D5201F51F71087094F881
:100D5000BC04012808D084F8BC24206803F040FBC0
:100D600084F8BC54002070BD022070BD70B50446EC
:100D700001F00F006268904201D9012070BD0B069E
:100D800001F00F0101EBC10104EB81014FF0010201
:100D90004FF0000503D581F83D203C3103E081F898
:100DA0007D5201F51F718D70087094F8BC04012804
:100DB00008D084F8BC24206803F04CFC84F8BC54B0
:100DC000002070BD022070BD01F00F0101EBC101D8
:100DD00000EB8100D0F8900270472DE9F041044605
:100DE0000F0601F00F0000EBC00104EB81014FF092
:100DF00001064FF0000503D581F83D603C3103E06A
:100E000081F87D5201F51F7108708A600B714A7874
:100E100002B14883022B00D14D7194F8BC04012823
:100E200009D084F8BC64206803F064FA284684F88A
:100E3000BC54BDE8F0810220FBE710B501F00F04BF
:100E400004EBC40100EB8101C1E9A2230022C1F837
:100E5000902281F87D2281F87C42006801F51F71A3
:100E600003F050FC002010BD70B504460D4601F0A3
:100E70000F006168884201D9012070BD29064FF03A
:100E800000064FF0010207D500EBC00104EB810121
:100E900081F83D203C3107E005EBC50104EB810101
:100EA00081F87D6201F51F718A70087094F8BC04A6
:100EB000012807D084F8BC24206803F0F7FB28073A
:100EC00002D006E0022070BD04F2C441206803F0A5
:100ED0009FFB84F8BC64002070BD10B501F00F04C6
:100EE00004EBC40100EB8101C1E9122300220A6571
:100EF000012281F83D2001F83C4F006803F002FC1C
:100F0000002010BD2DE9F84F05680446284603F07F
:100F100087FD00287DD1206803F0AEFD002878D041
:100F2000D5F80808C0F30D20C4F8FC04206803F0CD
:100F3000A3FD800704D52068416901F002014161E9
:100F4000206803F099FDC10604F2C440009034D536
:100F50002068816921F0100181612F6A07F00F007C
:100F600000EBC00004EB8006C7F3434006F51F7694
:100F7000022802D0062811D01AE047F6F0710F427D
:100F800016D0C7F30A1217462846F16803F078FD19
:100F9000F0683844F0607069384408E00822284658
:100FA000009903F06DFD7069C7F30A110844706180
:100FB0002068816941F010018161206803F05CFDC7
:100FC00000034FF0080A4FF0100B4FF001097DD5D8
:100FD0000026206803F02FFD07467FE0F8077BD04E
:100FE000F1B2206803F040FD8046C0071FD005EB3A
:100FF0004611C1F8089B216820460B6C01EB461294
:10100000D2F8081BDFF830C463450DD10B0406D5B8
:1010100000E00FE24FF40040C2F8080B07E0890639
:1010200002D52021C2F8081BF1B2FFF75CFE5FEA8F
:10103000087015D505EB4611C1F808AB2068016CA6
:1010400000EB4612D2F8080BFC4B994205D900047C
:1010500003D54FF40040C2F8080B204600F0B5FA63
:101060005FEAC86003D505EB4611C1F808BB5FEA2B
:1010700088701DD56869000605D5D5F8040840F4C8
:101080008061C5F8041806EBC60004EB800090F8F8
:101090007F1200F51F70012905D10021C170F1B246
:1010A000204600F0D1F905EB46110220C1F8080BEB
:1010B0005FEA886004D505EB46112020C1F8080BD3
:1010C0005FEA884008D54FF4005101E009E003E0F1
:1010D00005EB4610C0F8081B7F08761C002F7FF434
:1010E0007DAF206803F0C8FC40035BD5206803F0A7
:1010F0009BFC0746002653E0F8074FD0F1B220686A
:1011000003F0A0FC8046C00710D006F00F0209FAD9
:1011100002F0D5F834288243C5F8342805EB461090
:10112000C0F80899F1B22046FFF7D4FD5FEA0870D5
:1011300003D505EB4611C1F808A95FEAC86003D5DD
:1011400005EB4611C1F808B95FEA486004D505EB24
:1011500046104021C0F808195FEA887017D531465B
:10116000284603F031FC06EBC60004EB800090F843
:101170003F103C30012905D10021C170F1B2204659
:1011800000F05EF905EB46110220C1F808095FEA9C
:10119000086003D53146204601F0FCFC7F08761C30
:1011A000002FA9D1206803F067FC00280DDAD5F8DC
:1011B000040820F00101C5F80418204600F0E9F900
:1011C0002068416901F000414161206803F054FC4E
:1011D00000050BD5D5F80808C00702D0204600F05E
:1011E00011FA2068416901F400614161206803F04F
:1011F00043FCC0045FD5D5F8040820F00100C5F811
:1012000004081021206803F0DFFB00214FF67F3235
:1012100019E000BF05EB4110C0F80829D0F80039EB
:1012200023F40013C0F80039C0F8082BD0F8003BB5
:1012300023F40013C0F8003BD0F8003B43F00063F8
:10124000C0F8003B491C60688842E3D8D5F81C0808
:1012500040F00111C5F81C18206B002828460DD05D
:10126000D0F8840840F00B01C5F88418D5F844087C
:1012700040F00B012846C5F844180DE0D0F81408DA
:1012800042F22B010843C5F81408D5F8100840F0C5
:101290000B012846C5F81018D0F8000820F4FE61AC
:1012A000C5F800182068009903F0B2F92068416978
:1012B00001F480514161206803F0DEFB800415D504
:1012C000206803F057F8206803F09EFB206100F0CF
:1012D0000BFB0146227C206803F030FC204600F026
:1012E00045F92068416901F400514161206803F02B
:1012F000C3FB000707D5204600F04FF9206841697D
:1013000001F008014161206803F0B6FB000615D525
:10131000A86920F08001A96101260CE006EBC60057
:1013200004EB800090F87F02012803D1F1B220463F
:10133000FFF7E7FC761C6068B042EFD8206803F046
:101340009BFBC00221D501264F4616E005EB461057
:10135000D0F8000906EBC60104EB810191F84020AA
:10136000012A09D1002807DA81F83F70F0B240F075
:1013700080012046FFF7C5FC761C6068B042E5D8C6
:101380002068416901F480114161206803F074FB19
:10139000800232D501204A4627E000BF05EB40110C
:1013A000D1F8001B00EBC00304EB830393F88062C9
:1013B000012E19D1002917DA94F8FC6401F4803168
:1013C00006F00106B1420FD183F87F22A96941F0EE
:1013D0008003AB616969090606D4D5F8040840F4B6
:1013E0000070C5F8040803E0401C61688142D5D84C
:1013F0002068416901F400114161206803F03CFB61
:10140000400007D52046FFF761FC2068416901F0E4
:1014100080414161206803F02FFB40070AD5206816
:101420004568680702D52046FFF767FC20684168D9
:1014300029434160BDE8F88F0A31544F0A30544FB8
:10144000D0F8000502F0D6BCD0F8000502F0D4BCFC
:101450002DE9F0418AB0040005D094F8BD04266857
:10146000002520B108E001200AB0BDE8F08184F831
:10147000BC54204600F05EF8032084F8BD04F06BF5
:10148000C00500D4E560206803F0BCF804F1100149
:10149000282288466846FEF794FF94E80F0002F081
:1014A00077FF0226C8BB0021206803F008FB00205C
:1014B00001270EE000EBC00104EB810181F83D70D3
:1014C00001F83C0F48830D718D60CD60401CC0B2A7
:1014D0000D6161688142EDD8002011E000EBC00190
:1014E00004EB810181F87D5281F87C0281F8805201
:1014F000C1F88452C1F88852401CC0B2C1F88C5265
:1015000061688142EAD8282241466846FEF759FFC1
:1015100094E80F0002F0E6FF10B184F8BD64A2E782
:1015200084F8385084F8BD74206802F0CDFF0020A4
:101530009AE7000008B50068B0F1A04F12D10A4840
:10154000416941F4805141614069002200F48050BA
:10155000009011464320FFF761FBBDE8084043209F
:10156000FFF74EBB08BD00000010024070B50446F6
:1015700000690125022801D0FFF73DF92946D4F87A
:10158000000502F08EFCD4F80005BDE8704002F0C2
:101590004ABCD0F8000502F06EBCD0F8000502F09D
:1015A00074BC10B5044690F8BC0401280BD001208F
:1015B00084F8BC0484F83810206803F0AEFA0020E8
:1015C00084F8BC0410BD022010BDD0F8002500F244
:1015D000C441104602F071BC10B5044690F8BC043A
:1015E00001280CD0012084F8BC04206803F0C7F95E
:1015F000206802F05BFF002084F8BC0410BD0220CC
:1016000010BD000010B50446D0F8000502F094FCAF
:101610002068D0F8001E41F00101C0F8001E206AC9
:10162000002804D00248016841F00601016010BDA5
:1016300010ED00E02DE9F843044600785B4DC0074B
:101640004FF0010951D0E8690026C00008D4E869CC
:1016500040F08050E861E869012600F08050009079
:1016600053480168C90512D40168804641F480716D
:101670000160FFF76FFA074605E000BFFFF76AFA5F
:10168000C01B642877D8D8F80000C005F6D5286AB2
:1016900010F440701ED0A18801F44071814219D02D
:1016A000286A444920F44070C1F8009000220A6082
:1016B0002862C0070ED0FFF74DFA074641F288387E
:1016C00005E000BFFFF746FAC11B414553D8286A21
:1016D0008007F7D5286A616820F4407008432862C3
:1016E0001EB1E86920F08050E8612078800705D5B8
:1016F0006868A16820F4404008436860207840078B
:1017000005D5E86AE16820F400300843E8622078F3
:10171000000705D5E86A216920F480200843E862C3
:10172000E86A800302D4E86A400333D52868C00021
:1017300028D42868400105D5E86AA16900F0F000C6
:10174000884225D1E86AA16920F0F0000843E862E8
:10175000E86A616920F470400843E8621649C1F8FC
:101760007090FFF7F7F9064608E004E0FFF7F2F99A
:10177000801B642802D90320BDE8F8832868800014
:10178000F4D507E0E86A616900F47040884201D04E
:101790000120F1E72078C00605D56868E16920F4EA
:1017A0008000084368600020E6E700000010024067
:1017B0000070004040044242000042422DE9F047E0
:1017C0000F46050061D0434E306800F00700B84274
:1017D00009D2306820F0070038433060306800F0EC
:1017E0000700B84251D128683B4C810712D5400709
:1017F00003D5606840F4E06060602878000703D596
:10180000606840F4605060606068A96820F0F00093
:10181000084360602878C00728D06868012810D085
:101820002168022810D0890700292EDA616821F08A
:10183000030101436160FFF78DF9804641F2883969
:101840000DE021688903EFE78901EDE7FFF782F9F1
:10185000A0EB0801494502D90320BDE8F087606884
:10186000696800F00C00B0EB810FEFD1306800F038
:101870000700B8420BD9306820F0070038433060C9
:10188000306800F00700B84201D00120E5E7287871
:10189000400705D56068E96820F4E06008436060AF
:1018A0002878000706D56068296920F4605040EA6E
:1018B000C100606000F01EF86168084AC1F30311BE
:1018C000515CC8400649086006480068FFF762F9A5
:1018D0000020C2E70020024000100240985F00088C
:1018E0002C010020240100200148006870470000FE
:1018F0002C0100202DE9F0411D494A681D4802F0E5
:101900000C03042B2ED0082B2CD11B48C2F383438D
:10191000C45CD00328D5C86A174A00F00F000E3205
:10192000105CCA6AD20316D5CA6AC96AC2F3031226
:10193000C1F30321521C891CA2FB0023A1FB041547
:101940000C4F0026A1FB070C05FB07C501FB065148
:10195000FEF794FC03E007496143B1FBF0F00D2C66
:1019600000D14008BDE8F08104486043FAE7000078
:101970000010024000127A007A5F000800093D0062
:101980002DE9F84F040070D02078F14DC00749D000
:101990006868C0F38100012807D06868C0F381003F
:1019A000022809D16868C00306D52868800339D5A4
:1019B000A0680028E7D035E0A068B0F5803F0BD0E4
:1019C00010B1B0F5A02F11D0286820F48030286025
:1019D000286820F4802002E0286840F480302860E5
:1019E000A06890B1FFF7B6F806460AE0286840F410
:1019F00080202860F0E700BFFFF7ACF8801B642868
:101A000076D828688003F7D50CE0FFF7A3F80646E0
:101A100005E000BFFFF79EF8801B6428F0D8286817
:101A20008003F7D42078CB4E80074FF001094FF0A8
:101A300000073AD5686810F00C0F07D06868C0F34B
:101A40008100022809D16868C00306D4286880078D
:101A500015D56069012808D111E06069B8B1C6F8F0
:101A60000090FFF777F8804606E042E1FFF772F852
:101A7000A0EB08000228C3D828688007F6D528689C
:101A8000A16920F0F80040EAC10028600DE037604D
:101A9000FFF760F8804605E0FFF75CF8A0EB080070
:101AA0000228ADD828688007F6D4207800072ED504
:101AB000A948E169E9B1C0F80090FFF74BF880460A
:101AC00006E000BFFFF746F8A0EB0800022897D811
:101AD000686A8007F6D5A1484FF4FA510068B0FB58
:101AE000F1F0009000BF0098411E0091FAD20EE084
:101AF000B0E00760FFF72EF8804605E0FFF72AF810
:101B0000A0EB0800022889D8686A8007F6D42078FC
:101B1000400763D5E8694FF00008C00009D4E869C0
:101B200040F08050E861E8694FF0010800F0805013
:101B300000908B480168C90512D40168834641F4BE
:101B400080710160FFF706F8824605E0FFF702F8B2
:101B5000A0EB0A0064287DD8DBF80000C005F5D5AD
:101B6000206901280AD008B1052813D0286A20F07E
:101B700001002862286A20F0040002E0286A40F090
:101B800001002862206941F2883B98B1FEF7E2FF2C
:101B900082460BE0286A40F004002862EEE700BFAE
:101BA000FEF7D8FFA0EB0A01594553D8286A8007F1
:101BB000F6D50CE0FEF7CEFF824605E0FEF7CAFF41
:101BC000A0EB0A01594545D8286A8007F6D4B8F138
:101BD000000F03D0E86920F08050E861E06AD0B3DC
:101BE0006968C90307D56968C1F38101022902D177
:101BF000E96AC9037DD4022808D0E86A20F480305D
:101C0000E862B766FEF7A6FF80463BE02868C000A2
:101C100005D5E86A616B00F0F000884269D1B766CB
:101C2000FEF798FF804605E0FEF794FFA0EB080062
:101C3000642874D828680001F6D4E86A616B20F043
:101C4000F0000843E862E86A216B20F47060084302
:101C5000E86201E063E018E0C6F86890FEF77AFFFA
:101C6000804605E0FEF776FFA0EB0800642856D812
:101C700028680001F6D508E0FEF76CFFA0EB08002D
:101C800064284CD828680001F6D4206A90B36968AB
:101C9000C1F38101022949D00228376603D0FEF73B
:101CA00059FF04463EE0FEF755FF074605E000BF3A
:101CB000FEF750FFC01B022831D828688001F7D4F6
:101CC000606AB0F5803F09D1E86A61680843E8625C
:101CD000E86AE16820F00F000843E862D4E90901EE
:101CE0000843696821F4741108436860C6F860907D
:101CF00001E028E029E0FEF72DFF044605E000BFE3
:101D0000FEF728FF001B022809D828688001F7D5B4
:101D10001BE000BFFEF71EFF001B022802D90320B4
:101D2000BDE8F88F28688001F4D40EE00128F7D0D0
:101D30006868626A00F48031914204D1A16A00F4BB
:101D40007010884201D00120EAE70020E8E7000097
:101D50000010024000004242800442422C01002058
:101D6000007000407047000038B5044600684268C3
:101D70008168C9434B0606D5CB0704D1D3435B0624
:101D800001D4216C05E08B0708D4D3431B0605D48E
:101D9000616C01B02046BDE8304008478B0601D594
:101DA0004B0646D4D3439B0643D44B060AD494F83F
:101DB0005130032B3ED0636D43F004036365C36869
:101DC00083680093890609D4616D41F00101616562
:101DD00081680091016821F040010160606D002878
:101DE00027D02068416821F0E0014160012084F89B
:101DF0005100900722D02068416821F00301416022
:101E0000104DE06C40B14563E06CFEF7F7FC18B193
:101E1000606D40F040006065A06C002809D045630B
:101E2000A06CFEF7EBFC002803D0606D40F0400092
:101E3000606538BDC1688068009038BD2046FFF7F6
:101E400091FF38BDDD2C000870B5040009D0606A30
:101E5000002540B125616561A56294F8510040B14B
:101E60000CE0012070BD6068B0F5827FF4D0E561C0
:101E7000F2E784F85050204600F040F8022084F841
:101E800051002068016821F040010160A08821898B
:101E900000F4827001F404410843A18901F4006157
:101EA0000843217C01F002010843217D01F001017A
:101EB0000843218B01F400710843217F01F03801B0
:101EC000084394F8201001F080010843218D01F4AB
:101ED0000051084321680860A069042101EA10400C
:101EE000216848602068C16921F40061C1616565AD
:101EF000012084F85100002070BD000030B585B08D
:101F00000024009401940294039400681B498842C1
:101F100031D11B48C16941F40041C161C16901F47B
:101F200000410491816941F0100181618069154D82
:101F300000F0100004904FF4A05000900220019097
:101F40000320039069462846FEF702FDE814CDE918
:101F50000004694628460294FEF7FAFC0A484168E4
:101F600041F0B8514160002211463320FEF756FE81
:101F70003320FEF745FE05B030BD0000003C0040B8
:101F80000010024000100140000001402DE9F84F10
:101F9000044690F85100984616460F460025012841
:101FA00001D0022598E060684FF0040BB0F5827F05
:101FB00001D1A068F8B194F85000012826D04FF064
:101FC000010984F85090FEF7C5FD8246002F7FD0AE
:101FD000002E7DD084F851B000206065A763A687ED
:101FE000E6872063A086E08620646064A068B0F580
:101FF000004F0DD016E084F851B013460A46204633
:10200000CDF8008000F06DF8BDE8F88F0220FBE706
:102010002068016821F0400101602068016821F416
:102020008041016020680168490603D4016841F0DD
:1020300040010160E068D8B13BE020688168C907D1
:1020400009D0007BA16B0870A06B401CA063E08FDF
:10205000401EE0870CE0FEF77DFDA0EB0A01414544
:1020600003D3B8F1FF3F03D006E0B8F1000F03D06F
:10207000E08F0028E1D11FE003252BE02068816874
:10208000C90709D0C068A16B0880A06B801CA06341
:10209000E08F401EE0870CE0FEF75CFDA0EB0A013C
:1020A000414503D3B8F1FF3F03D0E5E7B8F1000F96
:1020B000E2D0E08F0028E1D152464146204600F0B0
:1020C00015FE08B120206065606D00E000E008B1F9
:1020D000012501E084F85190002084F85000284642
:1020E00092E72DE9FF4F81B0044690F8500000269A
:1020F0000E9F1D4693464FF0010901280FD04FF067
:10210000010A84F850A0FEF725FD804694F851009E
:10211000616801280DD0B1F5827F08D103E002206B
:1021200005B0BDE8F08FA16809B9042801D00226E6
:10213000C9E00298002865D0BBF1000FFBD0002D4C
:10214000F9D094F85100042802D0052084F85100F9
:1021500000206065C4F838B0E587A587029921633F
:10216000E586A5862064606420680168490603D47A
:10217000016841F040010160E068B0F5006F6068FF
:1021800003D0F0B3012D47D081E008B1012D3CD13F
:10219000206B21680088C860206B801C2063E08E63
:1021A000401EE08631E02068816889070FD5E18E06
:1021B00069B1B9F1010F0AD1216B0988C160206BA7
:1021C000801C2063E08E401EE0864FF000092068EE
:1021D0008168C9070CD0E18F51B1C068A16B08803C
:1021E000A06B801CA063E08F401EE0874FF00109C8
:1021F000FEF7B0FCA0EB0800B84206D3781C04D070
:1022000001E009E05BE003265BE0E08E0028CAD134
:10221000E08F0028C7D140E0206B21680078087368
:10222000206B401C2063E08E401EE0862FE020687B
:10223000816889070FD5E18E69B1B9F1010F0AD123
:10224000216B09780173206B401C2063E08E401ED7
:10225000E0864FF0000920688168C9070CD0E18F43
:1022600051B1C068A16B0870A06B401CA063E08FE7
:10227000401EE0874FF00109FEF76CFCA0EB080060
:10228000B84202D3781C02D0BAE7002FB8D0E08E53
:102290000028CCD1E08F0028C9D1424639462046DB
:1022A00000F052FD18B10126202060650BE0A06807
:1022B00018B92068C16880680090606D08B1012677
:1022C00001E084F851A0002084F85000304627E750
:1022D00010B5401EB0F1807F01D3012010BD4FF03A
:1022E000E02460610F21601702F0AFFC0020A061C4
:1022F00007202061002010BD7047704770B590F82E
:102300003C20012A29D0012480F83C40022280F898
:102310003D2003685A689D6822F070060A683243BF
:102320005A600F4B02689A420BD0B2F1804F08D02E
:102330000C4B9A4205D00C4B9A4202D00B4B9A425E
:1023400004D1496825F080031943916080F83D402D
:10235000002180F83C10084670BD022070BD0000CE
:10236000002C01400004004000080040000C004028
:1023700010B5040003D094F83D0010B107E001202F
:1023800010BD002084F83C00204600F01FF8022019
:1023900084F83D00211D206801F052F8012084F8E6
:1023A000460084F83E0084F83F0084F8400084F83A
:1023B000410084F8420084F8430084F8440084F823
:1023C000450084F83D00002010BD000008B50168FC
:1023D0002F48B1F1804F11D02E4A91421DD1C169D1
:1023E00041F00201C161C069002200F002000090CA
:1023F00011461D20FEF712FC1D2043E0C16941F08B
:102400000101C161C069002200F001000090114685
:102410001C20FEF703FC1C2034E01F4A91420ED121
:10242000C16941F00801C161C069002200F00800E3
:10243000009011463220FEF7F1FB322022E0174ACD
:1024400091420ED1C16941F01001C161C069002201
:1024500000F01000009011463620FEF7DFFB36201A
:1024600010E00F4A914211D1C16941F02001C161D0
:10247000C069002200F02000009011463720FEF7CE
:10248000CDFB3720BDE80840FEF7BABB08BD000011
:102490000010024000040040000C0040001000400A
:1024A0000014004090F83D10012901D00120704730
:1024B000022180F83D100168CA6842F00102CA603A
:1024C00000680D4988420BD0B0F1804F08D00B490D
:1024D000884205D00A49884202D00A49884204D17C
:1024E000816801F00701062903D0016841F001016C
:1024F0000160002070470000002C014000040040F3
:1025000000080040000C00400168CA6822F0010287
:10251000CA6001680A6A41F211131A4207D10A6AB5
:102520009B101A4203D10A6822F001020A600121BD
:1025300080F83D100020704770B5044690F83C00CC
:102540000025012817D0012684F83C60022084F879
:102550003D002068826822F0770222F47F42826088
:102560000868502838D00DDC20284FD005DC90B307
:10257000102811D14AE0022070BD302846D04028F2
:102580000AD13BE060282FD070280DD0B0F5805FD5
:1025900003D0B0F5005F12D0012584F83D60002023
:1025A00084F83C00284670BDCB68D1E90121206841
:1025B00000F084FF2068816841F0770109E0CB6872
:1025C000D1E90121206800F079FF2068816841F499
:1025D00080418160E1E719E0CA684968206800F03D
:1025E0007FFF5021206806E0CA684968206800F033
:1025F00088FF6021206800F06BFFCEE7CA68496859
:10260000206800F06DFF40212068F4E72268014651
:102610001046F0E7704770B50446006801694FF056
:102620000005C943890715D4C168C943890711D476
:10263000E91E01610120207720688069800720461B
:1026400002D0FFF7E7FF04E000F098F8204600F022
:1026500096F8257720680169C943490717D4C168EE
:10266000C943490713D46FF00401016102202077A8
:102670002068806910F4407F204602D0FFF7CAFF2F
:1026800004E000F07BF8204600F079F82577206818
:102690000169C943090716D4C168C943090712D49F
:1026A0006FF008010161042020772068C06980076D
:1026B000204602D0FFF7AEFF04E000F05FF82046AE
:1026C00000F05DF8257720680169C943C90617D471
:1026D000C168C943C90613D46FF010010161082015
:1026E00020772068C06910F4407F204602D0FFF7B1
:1026F00091FF04E000F042F8204600F040F8257712
:1027000020680169C943C90708D1C168C943C9071D
:1027100004D1891E0161204600F032F82068016969
:10272000C943090609D4C168C943090605D46FF035
:10273000800101612046FFF7DFFD20680169C94380
:10274000490609D4C168C943490605D46FF0400160
:102750000161204600F015F820680169C943890627
:102760000BD4C168C943890607D46FF02001016109
:102770002046BDE87040FFF7C0BD70BD7047704790
:1027800070477047FEE70000F0B500230A243025AB
:1027900037261F4611E000BFB4EB107F02D905EBCE
:1027A000107C01E006EB107C01F813C001EB430C38
:1027B00000015B1C8CF80170DBB29342ECD3F0BDDE
:1027C0002DE9F04F85B0002446480094019402940E
:1027D0000394816941F020018161816901F0200148
:1027E0000491816941F008018161816901F008016A
:1027F0000491816941F010018161816901F010014A
:102800000491816941F0040181618069DFF8D89009
:1028100000F00400049000224FF44C514846FEF7AB
:1028200094F9012291034846FEF78FF9DFF8BCA026
:10283000002280215046FEF788F9DFF8B4B04FF44B
:102840008068002241465846FEF77FF94FF4E04089
:1028500001250226CDE90005CDE902466946484634
:10286000FEF776F8802700970396CDE90154694674
:102870005046FEF76DF8CDF800800396CDE901547F
:1028800069465846FEF764F8CDE900746946484643
:102890000294FEF75DF84FF44070CDE90005032087
:1028A000CDE9024069464846FEF752F84020CDE99E
:1028B0000004694648460294FEF74AF80820CDE92C
:1028C0000004694658460294FEF742F80420CDE918
:1028D0000004694658460294FEF73AF805B0BDE890
:1028E000F08F000000100240000C01400010014079
:1028F000000801400F4810B50D4901604FF4827186
:10290000416000218160C1604FF400720161C0E943
:1029100005122822C0E90721416281620A21C162B1
:10292000FFF792FA002801D072B6FEE710BD000052
:10293000003C00406402002010B586B00024164818
:10294000009401940294039404944FF08041059400
:1029500001600321C0E901144DF2EF21C0E9031425
:102960008461FFF705FD08B172B6FEE74FF48050B1
:10297000009069460848FFF7DFFD08B172B6FEE730
:10298000049404A904480594FFF7B8FC002801D07A
:1029900072B6FEE706B010BDBC02002010B586B0CE
:1029A000002416480094019402940394049412495C
:1029B0000594C0E9001440F23F21C0E902410461DE
:1029C0008461FFF7D5FC08B172B6FEE74FF4805082
:1029D000009069460948FFF7AFFD08B172B6FEE7FF
:1029E000049404A905480594FFF788FC002801D049
:1029F00072B6FEE706B010BD0004004004030020DC
:102A000010B586B00024164A0094019402940394F1
:102A10000494124B05941360C2E90104C2E9031443
:102A200010469461FFF7A4FC08B172B6FEE74FF4BC
:102A30008050009069460A48FFF77EFD08B172B6E3
:102A4000FEE7049404A906480594FFF757FC002804
:102A500001D072B6FEE706B010BD0000000C0040C9
:102A60004C03002010B500220F49104801F0AAF8CD
:102A700008B1FDF7C0FE0E490C4801F083FA08B119
:102A8000FDF7B9FE0B49094800F0AAFE08B1FDF7B1
:102A9000B2FE064801F0CCFA002803D0BDE8104091
:102AA000FDF7A9BE10BD0000C0000020F40B0020FF
:102AB0000C02002010010020FEE7000070B52C4C35
:102AC000E16A606B814201D0C4E90A10A16A012564
:102AD000884202D24FF00000A06500D9A565E089C8
:102AE00002F0BDFC234A244B02F034FB02F08AFCC6
:102AF0002065D4E9151008430AD00320CF290CD94A
:102B000001EB81029200B2FBF0F0A064658217E055
:102B1000BDE870401948FFF7F7BC232907D3C1EB84
:102B20000112D200B2FBF0F0A0640B2007E041F2EA
:102B300068024A43B2FBF0F0A06440F2A310608246
:102B40000F4AA06CB2FBF0F0401EE064626A8A4259
:102B500007D0618AFFF754FF0848FFF7A3FC606DB8
:102B60006062BDE8704005484830FFF79BBC00003C
:102B7000000000209A9999999999B93F4C03002037
:102B800000A24A04FEE700000148FEF7BBB90000BE
:102B9000D81A00202DE9F0470E4601EBC60100EBE4
:102BA00081040568D4E913103C34884202D901201D
:102BB000BDE8F087081AA168814200D20846C01C0F
:102BC000870805EB461817E0A0EB0109A068484507
:102BD00000D2814609F1030087081FFA89F3F2B297
:102BE0002846E16802F01EF8E16801EB0900E060A8
:102BF000616901EB09006061D8F8180980B2B84238
:102C000005D3D4E90401814201D20028DCD1D4E902
:102C10000401884208D806F00F0101208840D5F849
:102C200034188143C5F834180020C1E7704700000C
:102C300070B5C820FDF77AFE2349244C224D487810
:102C4000E07188786072C9780C3D0126E172312804
:102C50000DD0322816D0332835D11B482662FDF717
:102C600091FBBDE8704001461748FDF7DCBB2869C1
:102C7000A063A88AA08115483830FDF776FB400094
:102C800060631AE0288A2082D5F8120060640F4839
:102C90001030FDF76AFBA0720C484430FDF765FB6D
:102CA0004000E063D5F816002066688BA0810748D5
:102CB0006030FDF75AFB4000206404480C30FDF7FB
:102CC00054FBE081C9E770BD5002002000000020E5
:102CD0000148FFF749B800006402002010B5406ABF
:102CE0000021C187C186FFF73DF810BDF8B5044645
:102CF00040684FF48273984217D1A0684FF4806502
:102D0000B0F5004F01D0A8420FD12068066826F028
:102D1000400606606068984207D1A068A84204D1C6
:102D200000920B460022012103E000920B46002294
:102D30008021204600F018F8002804D0606D40F093
:102D4000200060650320F8BD38B50B4600920446AC
:102D50000022802100F008F8002804D0606D40F0C7
:102D600020006065032038BD2DE9F8431E469146DA
:102D700088460446089DFDF7EDFE401B351AFDF719
:102D8000E9FE074625480068C0F3CB30684338E0C9
:102D9000701C37D0FDF7DEFEC01BA84203D215B170
:102DA000009860B32CE02068416821F0E0014160A8
:102DB0006068B0F5827F0BD1A068B0F5004F02D0FB
:102DC000B0F5806F04D12068016821F040010160F6
:102DD000A06AB0F5005F09D12068016821F40051B4
:102DE00001602068016841F400510160012084F80D
:102DF0005100002084F850000320BDE8F88300252E
:102E0000401E00902068816838EA010004D000214B
:102E10004945BDD10020F0E70121F9E72C01002050
:102E20007047FDF79DBE000070B59CB03821684624
:102E3000FDF7F9FA14210EA8FDF7F5FA202113A8E1
:102E4000FDF7F1FA012500242804CDE90204022649
:102E5000CDE908600095059501944FF4E010CDE9A7
:102E60000A046846FEF78CFD08B172B6FEE70F2033
:102E7000CDE90E064FF48060CDE9104002210EA886
:102E80001294FEF79BFC08B172B6FEE71020139077
:102E90001A9413A8FEF7CEFB08B172B6FEE70248FB
:102EA00005671CB070BD0000000042427047000082
:102EB0002DE9F0477E4D80212846FDF739FE00B10F
:102EC00001207C4C7C4E0421E0703046FDF730FE42
:102ED00000B10120A0714021AA462846FDF728FE36
:102EE00000B1012020710821B1463046FDF720FED7
:102EF00008B1012200E00022704B627101261878AF
:102F00000025012820D1E07827790146384000EAE1
:102F10000207A079074206D0A7897F1CBFB2A7810C
:102F2000032F05D000E0A581A778012F01D003E091
:102F3000A670E7897F1CE781E789172F04D1A57068
:102F4000E581814200D01D705D48DFF868815D4FEA
:102F5000007808F10A08302802D0312870D039E012
:102F6000E0782179A37940EA010C4CEA020C33EABB
:102F70000C0C14D121EA000C0CEA020C1CEA030F21
:102F80000DD100EA010C0CEA020C3CEA030C06D15C
:102F900020EA010C2CEA020C3CEA030C01D0E5719A
:102FA00000E0E671C44698F801808CF8008094F83F
:102FB00007908CF80190C84504D1B8F1000F01D0FA
:102FC0003E7000E03D7008401040184201D066702D
:102FD00000E065703C483D4E0068E8B302F03FFAFF
:102FE0003B4A3C4B02F08AFA022202F080FF0022A8
:102FF000394B02F083FA02460B460020374902F0B3
:10300000A9F801F0B9FF01463060E06A02F026FD40
:10301000E062208A401C208280B2A0F54071E7392E
:1030200009D12F49E06A02F07BFD02F03BFE2D49F9
:103030000860E5622582BDE8F0472B48FFF7EBBA50
:1030400080215046FDF774FD00B10120E070082199
:103050004846FDF76DFD00E026E000B101206071FB
:1030600004214846FDF764FD08B1012200E000227A
:10307000A271E17882F00100884201D1E57100E09F
:10308000E67198F8013088F8003094F807C088F8A5
:1030900001C0634502D10BB13E7000E03D70607924
:1030A0000140114295D092E73560E562B1E700003A
:1030B000000C01408C0000200008014008000020A6
:1030C0000700002006000020700000206C00002097
:1030D0008DEDB5A0F7C6B03E0000694000004E403F
:1030E00000007A4430000020BC0200202DE9F041AD
:1030F00004213B48FDF71CFD3B4F3A4A3B4D3968E4
:1031000022F811002A88491C104480B228803960B6
:10311000022960D1364E374C3178012902D121681D
:10312000491C216002F09BF94FF0FF3202F0DFFEF4
:1031300001F022FF02F066FC01F0BEFE02F062F92F
:1031400082B22D480021DFF8B8C002802B483960D8
:1031500029804788078085884580C3888380C2800E
:1031600020482838012A01D012B301E0012B13D0E6
:1031700053B14DB147B1436A5B1CA3F51064436280
:10318000473C02D1CCF8001041621E4B1B68B3B122
:10319000B3F5967F16D01EE0002DEBD1002FF3D1B2
:1031A000012333702368DB00CCF800302160EBE7AB
:1031B000002BE9D1002DE7D1002FDCD0E4E7CCF8DB
:1031C000001008E00189B1F5FA7F04D20E4B43F8F4
:1031D0002120491C0181BDE8F0410C48FFF71BBAD2
:1031E00000080140B4000020800000207C00002086
:1031F00065000020680000207E0000207400002090
:10320000700000205400002024040020040300204B
:1032100010B54FF400710448FDF78FFCBDE8104075
:103220000248FFF7F8B90000000C01404C030020F1
:103230002DE9F84F5148DFF848B1DFF84C810178AB
:1032400050480024DBF820900578012979D1322DEF
:1032500004D0312D05D0332D03D070E0B9F1000F2B
:103260006DD1474B49484A4993F800A04A4B026840
:1032700048481F68494B096800681E681AB1012A4E
:1032800013D03AB15BE0891BB1FBF0F002F02AFDEC
:10329000434908604048B74251D987B3332D35D0F0
:1032A000312D33D0322D2ED049E0711AB1FBF0F020
:1032B00002F018FD3A49B7420860009036483ED205
:1032C000332D06D0312D04D0322D38D1BAF1010F73
:1032D00035D18246384602F005FD009902F0BEFB6A
:1032E00002F0E0FCCAF80000B04209D32D490120E9
:1032F000CAF8006088F8000008702B481CE01EE047
:1033000088F800401BE0BAF1010F18D18246384618
:1033100002F0E8FC2249096802F042FD02F0C2FC1A
:10332000CAF80000B042EBD81F490120CAF800607B
:1033300088F8000008701B4804708BF800400F48A4
:103340000470322D15D198F80000012811D1174BC7
:1033500009F1010158461C70CBF82010142908D13E
:103360000462134A88F800400121197011708BF82B
:103370000010BDE8F84F0F48FFF74DB903000020DB
:103380008C000020090000200500002058000020CB
:1033900028000020500000205400002034000020AD
:1033A0008800002001000020020000200000002012
:1033B000040000209403002038B5642303226946EA
:1033C0001948FEF7E3FD9DF800009DF80110000488
:1033D00040EA01209DF80210084381021348C90BFE
:1033E000016013488269521C826142698A4214D08A
:1033F000104B1C78104B302C02D0312C08D005E03B
:103400009142A2EB010200D31A44C261416106E07D
:103410009142A1EB0202F8D8F6E70021C16107480A
:10342000FFF7F9F838BD0000640200208400002096
:103430008C0000200B000020FFFF0100DC030020B7
:10344000F0B50268194B1A4C1A4D1B4E4FF08047CD
:10345000984207D0B84205D0A04203D0A84201D07C
:10346000B04204D122F0700C4A6842EA0C02984241
:1034700007D0B84205D0A04203D0A84201D0B04244
:1034800003D122F44074CA6822434C6922F08002BE
:10349000224302608A68C2620A688262984201D14D
:1034A0000969016301214161F0BD0000002C014068
:1034B0000004004000080040000C004010B5846883
:1034C00042EA032224F47F440A432243826010BD6F
:1034D000826822F070020A4342F00701816070475F
:1034E00010B5036A046A24F001040462846924F0BC
:1034F000F00444EA021423F00A020A4384610262DF
:1035000010BD10B5036A046A24F0100404628469D3
:1035100023F0A00324F4704444EA023243EA011188
:103520008261016210BD0000F0B43748374B612161
:1035300001705A694FF47A71B2FBF1F4303444707F
:10354000B2FBF1F66424B2FBF4F5764206EB860694
:1035500005EB4605303585700A25B2FBF1F6B2FB66
:10356000F5F74FF0270C06FB0CF607EB8606B2FBCF
:10357000F1F701FB1727B7FBF4F77F4207EB87074B
:1035800006EB47063036C670B2FBF5F605FB162291
:10359000303202711A6BB2FBF1F63036B2FBF1F742
:1035A0004671B2FBF4F67F4207EB870706EB47064E
:1035B00030368671B2FBF1F6B2FBF5F706FB0CF67E
:1035C00007EB8606B2FBF1F701FB1721B1FBF4F123
:1035D000494201EB810106EB41013031C171B2FB7F
:1035E000F5F105FB112130310172094909783031BB
:1035F0004172997930318172197A3031C172F0BCDF
:103600000C21FDF7E1B8000044020020000000207A
:103610008D0000202DE9F041D0F8C032D0F8B8225A
:10362000DAB101EB810400EB84040025E6694EB1B8
:1036300001EBC10703EB87035B6CB6FBF3F703FBFE
:10364000176323B1C2F814520020BDE8F0810023B3
:103650001A46E56100F079FCF6E70220F5E770B55F
:103660000546D0F8B84200F085FBC4F80C02D5F846
:10367000B80248B1D5F8BC12D4F80402CA6804F5FF
:1036800003719047002070BD022070BD70B50446E4
:103690000026812100F0B4FA002501212046E562D0
:1036A00000F0AEFA82212046C4F86C5100F0A8FA6E
:1036B0002564D4F8B80248B1D4F8BC0204F52E74DD
:1036C00040688047206800F010FE2560304670BDDD
:1036D00010B5D0E9AE4159B194F80002FF2807D0E7
:1036E0008B6894F8012221469847FF2084F8000255
:1036F000002010BD0A2101800048704734010020DD
:10370000432101800048704784010020432101804B
:103710000048704740010020432101800048704765
:10372000C80100202DE9F04104460026007C4FF43A
:103730000077012590B3402302228121204600F02A
:103740005DFB4023E56202220121204600F056FB8A
:103750000823032282212046C4F86C5100F04EFB5E
:103760004FF40770256400F0C1FDC4F8B802F8B149
:103770000546D4F8BC02006880470020C5F8140252
:10378000C5F81802207CD5F8042298B14023012105
:10379000204600F03FFB3046BDE8F081FFE73B46A6
:1037A00002228121204600F029FB3B46E562CAE760
:1037B0000126F0E73B46EAE710B5D0F8B81269B148
:1037C000027C002AD1F8042205D04023012100F018
:1037D00021FB002010BD4FF40073F7E7022010BD5D
:1037E00002460220002902D00020C2F8BC12704715
:1037F000D0F8B802C0F8041200207047D0F8B80220
:10380000C0F81022C0F80812002070472DE9FC41D2
:103810000546D0F8B87200208DF80000ADF804001D
:10382000064608780C4610F0600121D020293BD1D3
:10383000E288AAB10006607807D5D5F8BC128B687B
:1038400039469847E288394626E087F80002A07991
:1038500087F80102E2883946284600F06AF828E035
:10386000D5F8BC12607800228B682146984720E08A
:10387000607820B10A2809D00B2815D110E095F8FE
:103880009C02032810D1022201A905E095F89C02B0
:10389000032809D101226946284600F064F808E0AF
:1038A00095F89C02032804D02146284600F036F8FB
:1038B00002263046BDE8FC8110B5D0F8B812A1B19F
:1038C000D1F814220AB1012010BD0122C1F814223E
:1038D000D1F810220263B1F8102293B2D1F8082275
:1038E000812100F032FB002010BD022010BD10B578
:1038F000D0F8B42252689047002010BD134610B58E
:103900000A46002100F086FA002010BD134610B5CB
:103910000A46002100F019FB002010BD10B5044636
:10392000802100F0F7FA2046BDE81040002100F0A9
:10393000F1BA10B50323C0F85C21C0F89432C0F886
:10394000602113460A46002100F064FA002010BDF1
:1039500010B505210023C0F894121A46194600F04C
:1039600059FA002010BD10B50223C261C0F894328C
:10397000026213460A46002100F0E7FA002010BD5B
:1039800010B504210023C0F894121A46194600F01D
:10399000DCFA002010BD000010B50A46024903A061
:1039A00000F0E0F8004810BDB80E0020434443206A
:1039B000436F6E66696700001220088000487047F8
:1039C000E000002010B50A46024903A000F0CAF842
:1039D000004810BDB80E002043444320496E746572
:1039E000726661636500000004200880004870472B
:1039F000DC00002010B50A46024903A000F0B2F82E
:103A0000004810BDB80E002053544D6963726F65B5
:103A10006C656374726F6E696373000010B50A465B
:103A2000024903A000F09EF8004810BDB80E002027
:103A300053544D3332205669727475616C20506F47
:103A40007274000010B51A2008800A480168001D31
:103A50000468001D0068081809D008220649FEF70E
:103A600093FE0549042210312046FEF78DFE0248E0
:103A7000801E10BDE8F7FF1FF6000020F8B50446D1
:103A80000020ADF8000048880D46010A082948D2F8
:103A9000DFE801F04704091747473C45D4F8B01266
:103AA000207C0A6819E0207C02260028D4F8B402A1
:103AB00005D0C16A68468847014646703EE0816A83
:103AC000F8E7C0B206282CD2DFE800F0030A101491
:103AD000181CD4F8B002426805E0694690471CE023
:103AE000D4F8B0028268E2B1207CF6E7D4F8B002E4
:103AF000C268F8E7D4F8B0020269F4E7D4F8B0027B
:103B00004269F0E7D4F8B0028269ECE7207C40B962
:103B1000D4F8B402416B6846884701460EE0207C29
:103B200020B129462046FFF7F9FEF8BDD4F8B402CB
:103B3000016B68468847014607204870BDF80000C1
:103B400048B1EA8852B1824200D90246ADF800205D
:103B50002046FFF708FFE8880028E6D12046FFF757
:103B60000FFFF8BD70B5002300281ED004460025C5
:103B700002E06D1CEDB2641C2678002EF9D10224FF
:103B800004EB450414801278CA545B1C0322CA5407
:103B900000245B1C06E0CA545B1CDAB28C54521C35
:103BA000D3B2401C0278002AF5D170BD01004FF05D
:103BB000000004D0012901D0022901D00220704761
:103BC0000120704710B580B1D0F8B43213B1002392
:103BD000C0F8B43209B1C0F8B012012180F89C12CB
:103BE000027000F0CBF8002010BD022010BD10B50F
:103BF000D0F8C002FDF7BAF8BDE81040FFF7D6BF15
:103C000010B5D0F8C002FDF78BF8BDE81040FFF703
:103C1000CDBF2DE9F0411746044651B1D4F8B402A6
:103C200042691AB194F89C02032851D00220BDE8E1
:103C3000F081D4F89432002504F11400022B03D053
:103C4000042B3AD0C3B33CE0D0E903639E4207D9CA
:103C5000F11AC1608AB239462046FFF757FE12E0DA
:103C60008068B0FBF3F103FB110199B9984211D3BD
:103C7000D4F8981288420DD2002211462046FFF750
:103C800045FEC4F8985200231A461946204600F013
:103C9000C1F816E0D4F8B402C16829B194F89C02C6
:103CA000032801D1204688478021204600F032F9C0
:103CB0002046FFF74DFE04E0FFE78021204600F09C
:103CC00029F994F8A002012804D184F8A05201E057
:103CD000204690470020AAE770B51546044649B132
:103CE000D4F8B40282691AB194F89C02032830D047
:103CF000022070BDD4F8941204F5AA70032902D0F2
:103D000005291ED027E0D0E903218A420BD9531A96
:103D1000C3600846834200D303469AB22946204630
:103D2000FFF7ECFD17E0D4F8B402016929B194F86B
:103D30009C02032801D1204688472046FFF720FE39
:103D400009E000200146C4F89402204600F0E2F8A1
:103D500001E020469047002070BD0020704710B55C
:103D6000012180F89C12D0F8B42201795268904762
:103D7000002010BDD0F8C002FDF726B810B50178BC
:103D800021BB1349C1F80005C0F8C0124FF0A04094
:103D90000860042048600220086188610020C86132
:103DA0000862C8620846FDF753FB08B1FCF723FD23
:103DB00080210748FCF764FF402200210448FCF7FB
:103DC00063FF802201210248FCF75EFF002010BD46
:103DD000D81A00200A0601F07F01D0F8C00201EBDA
:103DE000C10100EB810002D590F83E00704790F8C9
:103DF0007E027047002070470020704710B51C46B7
:103E00001346D0F8C0022246FCF7E7FFBDE8104099
:103E1000FFF7CCBE10B5D0F8C002FDF70EF8BDE834
:103E20001040FFF7C3BE70B5002204464023114680
:103E3000FFF7E4FF40260125C4F864613346002201
:103E400080212046C4F85851FFF7D8FF6662A5616B
:103E500084F89C520020C4F894026060C4F8A40264
:103E6000D4F8B80228B1D4F8B40200214268204640
:103E70009047002070BD90F89C12042903D190F85F
:103E80009D1280F89C120020704710B590F89C128B
:103E9000032904D1D0F8B412C96901B188470020C0
:103EA00010BD01740020704710B5D0F8C002FDF7B6
:103EB00078FBBDE81040FFF779BE70B5044600F509
:103EC0002A70054600F04AF80120C4F89402B4F8BC
:103ED000AE02C4F8980294F8A80210F01F010AD0AC
:103EE00001290DD0022910D000F08001204600F0F9
:103EF00011F8002070BD2946204600F09EF8F8E732
:103F00002946204600F0CAF9F3E72946204600F08A
:103F10001DF9EEE710B5D0F8C002FCF7A5FFBDE82B
:103F20001040FFF743BE10B5D0F8C002FDF754FBB8
:103F3000BDE81040FFF73ABE90F89C1280F89D1241
:103F4000042180F89C120020704710B5D0F8C00200
:103F5000FCF7C3FFBDE81040FFF728BE0A780270E7
:103F60004A7842708A78CB7802EB032242800A7941
:103F70004B7902EB032282808A79C97902EB012115
:103F8000C18070470246002011B1C2F8B4127047D8
:103F90000220704710B5D0F8B42202241AB112687A
:103FA000904700B90024204610BD000070B50E46B1
:103FB0001E4D897804462970012931D894F89C0255
:103FC00002280BD003280FD031462046FFF7A6FC6D
:103FD00029782046BDE87040FFF789BCD9B103209D
:103FE000616084F89C0209E071B16068884212D077
:103FF000C1B22046FFF77BFC297861602046FFF7BD
:10400000C9FF02280CD006E0022084F89C0220465A
:104010006160FFF76CFC2046BDE87040FFF7B0BC64
:1040200031462046BDE87040FFF778BC30010020E3
:1040300010B5FFF778FF002010BD2DE9F0410A7898
:10404000002612F0600208D0202A01D0402A70D148
:10405000D0F8B422926890476DE04B780022012599
:104060000A2B66D2DFE803F0405D655765080565F9
:104070002C29FFF703FD5EE004468888D8B9C8887C
:10408000C8B94888802816D200F07F0794F89C02AF
:10409000032810D084F89E7239462046FFF704FFAB
:1040A0002046FFF76DFC1FB1022084F89C0242E01D
:1040B00084F89C523FE020463BE0FFF777FF3AE070
:1040C000CB88012B35D190F89C32012B04D0022BE8
:1040D00002D0032B2DD104E08260012200F10801FF
:1040E00016E00122011D13E090F89C22012A03D062
:1040F000022A01D0032A1CD1CA88022A19D1C5601C
:10410000D0F8A41209B10321C160022200F10C0110
:10411000FFF729FC0FE0498801290CD1C0F8A4520F
:1041200011E090F89C32012B08D0022B06D0032B13
:1041300004D0FFF7F3FB3046BDE8F0814988012940
:10414000F9D1C0F8A422FFF71BFCF4E72DE9F041F8
:104150000A46044610780027097910F060030AD057
:10416000202B01D0402B50D1D4F8B40211468368E3
:10417000204698478FE0C0F34110012806D05078C0
:10418000D0B301282AD003283FD107E0D4F8B402E5
:10419000114683682046BDE8F041184794F89C0218
:1041A000022802D0032872D10AE071B380296ED0B0
:1041B0002046FFF7AFFE80212046FFF7ABFE6AE006
:1041C000508838B931B1802904D0D08810B9204640
:1041D000FFF7A0FE2046FFF7D3FB5CE094F89C02BB
:1041E0000228E2D0032852D1508898BB4806F1D06B
:1041F0002046FFF7FCFCEDE7FFE794F89C02002661
:10420000022803D0032842D112E040E009B18029FE
:104210003DD1080601F07F0000EB800004EB800137
:1042200001D5143101E001F5AA7102220E602AE0E5
:10423000080601F00F0000EB800004EB80000AD5B7
:10424000806920B301F07F0000EB800004EB800563
:1042500014350BE01FE0D0F85801C0B101F07F0029
:1042600000EB800004EB800505F5AA7541B18029BB
:1042700006D02046FFF7AEFD10B10120286000E017
:104280002E60022229462046FFF76DFB03E011460F
:104290002046FFF743FB3846BDE8F08170B5054680
:1042A00008780C4610F0600003D0202801D0402888
:1042B00016D195F89C02012803D0022801D00328CA
:1042C0000ED1207901280BD8D5F8B402826828468F
:1042D0009047E188014306D12846FFF751FB02E0F1
:1042E0002846FFF71BFB002070BD70470048704751
:1042F000B818002070B50A78012302F00F054E7837
:10430000AB401B4CD0F81C58012E17D045EA034394
:10431000C0F81C3800EB4210D0F8002B12040BD46C
:10432000D0F8002B0B890979C3F30A031A4344EA36
:1043300081410A43C0F8002B002070BD9BB21D4391
:10434000C0F81C5800EB4210D0F800391B04F3D41D
:10435000D0F800390D890979C5F30A0589042B4382
:1043600041EA82510B432343C0F80039E4E70000DF
:1043700000800010D0F800196FF30A01C0F800198E
:10438000D0F8041841F48071C0F804180020704778
:1043900018B5C16841F04001C16000220F490323F4
:1043A0000092009C641C00948C420CD80469002C80
:1043B000F7DA0092046944F001040461009C641C73
:1043C00000948C4201D91A4602E00469E407F5D151
:1043D000816B41F480318163104618BD400D0300AC
:1043E00030B54C780A78012300EB4212012C2CD016
:1043F000D2F8004B002C0BDAD2F8004B44F00064EA
:10440000C2F8004BD2F8004B44F08044C2F8004B95
:10441000D0F83C580C7804F00F0403FA04F425EAB1
:104420000444C0F83C48D0F81C48097801F00F015A
:104430008B4024EA0341C0F81C18D2F8000B19493C
:104440000840C2F8000B002030BDD2F80049002C13
:104450000BDAD2F8004944F00064C2F80049D2F8FF
:10446000004944F08044C2F80049D0F83C480D7837
:1044700005F00F0503FA05F5ADB2AC43C0F83C48B2
:10448000D0F81C48097801F00F018B4099B28C4399
:10449000C0F81C48D2F8000903490840C2F80009D6
:1044A000D1E700000078F3EF007833ECD0F8001E7D
:1044B00021F00301C0F8001ED0F8041821F0020119
:1044C000C0F8041800207047D0F8001E21F0030146
:1044D000C0F8001ED0F8041841F00201C0F804181A
:1044E000002070472DE9F04700260446DDF83CA087
:1044F000DDF82C900F463046354600BF04EB8001B6
:10450000C1F80451401C0F28F8D3A06B40F40021DF
:104510002046A163C4F8005ED4F8001841F00301FE
:10452000C4F80018102100F04FFA00B1012620460F
:1045300000F02CFA00B10126C4F81058C4F8145841
:10454000C4F81C5800204FF000634FF090484FF61D
:104550007F3214E004EB4011D1F800C9BCF1000F28
:1045600006DA10B1C1F8008904E0C4F8003901E0AE
:10457000C1F80059C1F81059C1F80829401C8742F8
:10458000E8D8002015E000BF04EB4011D1F800CBC3
:10459000BCF1000F06DA10B1C1F8008B04E0C4F8DA
:1045A000003B01E0C1F8005BC1F8105BC1F8082BCB
:1045B000401C8742E8D8D4F8100820F48071C4F871
:1045C0001018A5616FF080406061A06940F0100094
:1045D000A061A06909490843A061B9F1000F03D0A7
:1045E000A06940F00800A061BAF1010F03D1A069F1
:1045F00003490843A0613046BDE8F08700383C809D
:1046000004000040816821F00101816000207047B2
:10461000016C0F4A914203D9D0F8001B002914DB2A
:104620000021C0F8101BD0F8101B41F40021C0F885
:10463000101BD0F8101B41F01801C0F8101BD0F867
:10464000101B41F0C041C0F8101B00207047000053
:104650000A30544F4A780B78012A00EB43100BD0F4
:10466000D0F8002B22F40012C0F8002B097903299E
:1046700014D0022912D017E0D0F8002922F4001239
:10468000C0F800290979032901D002290CD1D0F8FA
:10469000001941F08051C0F8001905E0D0F8001B66
:1046A00041F08051C0F8001B002070470A784B7819
:1046B000D1B200EB4110012B12D0D0F8001B002921
:1046C00006DB2AB1D0F8001B21F08041C0F8001BA6
:1046D000D0F8001B41F40011C0F8001B0020704707
:1046E000D0F80019002906DB2AB1D0F8001921F012
:1046F0008041C0F80019D0F8001941F40011C0F849
:104700000019EBE770B50B784E78744CDAB26FF0A5
:10471000604500EB4212012E2AD0D2F8106B6FF3E5
:104720001206C2F8106BD2F8106B2640C2F8106B5C
:10473000002B7DD00C69002C7BD08B681C44641E40
:10474000B4FBF3F4A4B263430B62D2F8103B05EA66
:10475000C4442343C2F8103BD2F8103B0C6AC4F3A4
:1047600012042343C2F8103B0979012974D0ADE04B
:104770000E692EB3D2F810696FF31206C2F81069F1
:10478000D2F810692640C2F810694BB30E698C68E4
:104790002644761EB6FBF4F405EAC444D2F8105958
:1047A0002C43C2F8104900BFD2F810490D69C5F377
:1047B00012052C43C2F810490C79012C1CD027E0BB
:1047C000D2F810592540C2F81059D2F8104944F4D3
:1047D0000024C2F81049D2F810496FF3120415E012
:1047E0000D698C68A54200D90C61D0F8104944F4D9
:1047F0000025C0F81059D7E7D2F8104924F0C0447A
:10480000C2F81049D2F8104944F00054C2F81049D7
:1048100000EB4312D2F8003943F00443C2F80039E8
:104820000B79012B0FD00A690AB3D0F8342801E0C4
:104830001EE031E0097801F00F03012199400A439D
:10484000C0F8342848E0D0F80838DB05D2F8003941
:1048500003D443F0005302E02BE043F08053C2F84E
:1048600000390A8A93B20A78C96800F0DBF933E0AC
:104870000B690BB18B680B618B680B62D0F8104B26
:10488000C3F312031C43C0F8104BD0F8103B43F4A1
:104890000023C0F8103B67E7D2F8103B8C68C4F3E4
:1048A00012042343C2F8103BD2F8103B43F4002318
:1048B00058E7D0F80808C005D2F8000B02D440F041
:1048C000005001E040F08050C2F8000BD2F8000B1D
:1048D00040F00440C2F8000B002070BDFFFF07E06D
:1048E00038B50022009213464D780A7842F21074CF
:1048F00000EB4212012D19D0D2F8005B002D3CDAFA
:10490000D2F8005B45F00065C2F8005B0A7800EB66
:104910004212D2F8005B45F08045C2F8005B009A75
:10492000521C0092A24221D9012326E0D2F800595C
:10493000002D22DAD2F8005945F00065C2F800597E
:104940000A7800EB4212D2F8005945F08045C2F8CF
:104950000059009A521C0092A242E5D80A7800EB56
:104960004212D2F80029002AF3DB06E00A7800EBB5
:104970004212D2F8002B002AD1DB184638BD8168DC
:1049800041F00101816000207047000008B500225D
:104990000C490092009B5B1C00938B420AD8036970
:1049A000002BF7DA009210220261009A521C00924A
:1049B0008A4201D9032008BD0269D206F5D400203D
:1049C00008BD0000400D030018B500230D4A0093F8
:1049D000009C641C009494420CD80469002CF7DA03
:1049E0000093202343EA811101610099491C009141
:1049F000914201D9032018BD01698906F5D4002030
:104A000018BD0000400D0300D0F8080800F00600B3
:104A1000022803D0062801D00F20704702207047DB
:104A2000406900F001007047D0F81818D0F81C0851
:104A3000084080B27047D0F81818D0F81C08084019
:104A4000000C704710B5D0F81038D0F8342801F0B9
:104A50000F0400EB4110E24002F00102D0F8080917
:104A600043EAC212104010BD00EB4111D1F8081BFF
:104A7000D0F81408084070474169806908407047C1
:104A800030B503460846940802F00301002203F5FE
:104A9000805303E01D6840F8045B521CA242F9D326
:104AA00000290BD01C680022D50024FA05F3491E0A
:104AB000521C090400F8013B090CF5D130BD70B55A
:104AC0000446C068002520F0C040E060012901D004
:104AD00079B120E0E06840F00050E0600120FBF791
:104AE00025FF60696D1C10F0010F10D1322DF5D338
:104AF0000DE0E06840F08040E0600120FBF716FF29
:104B000060696D1C10F0010F01D0322DF5D3322DEC
:104B100001D0002070BD012070BDD0F8002822F423
:104B2000FE62C0F80028D0F800284FF4FE6303EAC4
:104B300001110A43C0F8002800207047022A2ED134
:104B4000264A274B0A449A4201D20F2138E0254ACF
:104B5000254B0A449A4201D20E2131E0234A244BCC
:104B60000A449A4201D20D212AE0224A224B0A44E9
:104B70009A4201D20C2123E0204A214B0A449A4256
:104B800001D20B211CE01F4A1F4B0A449A4201D25A
:104B90000A2115E01D4A1E4B0A449A4201D20921FE
:104BA0000EE01C4A1C4B0A449A4201D2082107E03D
:104BB0001A4A11441A4A914201D2072100E0062103
:104BC000C26822F47052C260C2684FF4705303EAA4
:104BD00081210A43C260002070470000405327FF34
:104BE00000350C00401E1BFF40420F0000DC0BFF95
:104BF000804F1200808CF9FE20D6130060B6E5FECF
:104C000060E3160000D3CEFE40771B00C05BB3FE0E
:104C1000C091210000CA91FE20753800E05459FE71
:104C2000E09C410010B5DB1C9C0800EB0230002327
:104C300000F5805004E000BF51F8042B02605B1CBB
:104C4000A342F9D3002010BDFEE70907090E002892
:104C500004DB00F1E02080F80014704700F00F0042
:104C600000F1E02080F8141D704700001CB5FBF730
:104C70007FFFFEF7D9F8FDF7A3FDFDF7F3FEFDF783
:104C800039FE804C618AE06CFDF7BAFE00257F4852
:104C900000957D490195016041F61F41C0E901156C
:104CA00040F2E7318561C160FDF762FB08B172B681
:104CB000FEE70095694675480195FDF71FFB08B1B1
:104CC00072B6FEE771480095483071490195016060
:104CD00040F29911C0E9011523218561C160FDF7FA
:104CE00047FB08B172B6FEE7684800956946483050
:104CF0000195FDF703FB08B172B6FEE7FDF74EFE26
:104D0000FDF71AFE61489038FDF7CCFB5F48D838B4
:104D1000FDF7C8FB5D484830FDF7C4FBDFF8749130
:104D20004FF0010A4FF47A7B40F6B83847F230561C
:104D300099F80000752812D1FDF77AFFE07A302843
:104D400005D100224FF480715348FBF7FEFEE07A54
:104D5000312804D1012211024F48FBF7F6FE84F8F6
:104D600003A0A07801280CD1607850B9607940B9CF
:104D70002078012805D12079012802D1607A3228D3
:104D800003D0607A312805D006E0A069401CA061FC
:104D9000257104E0FDF792FE607A322825D1A07AD1
:104DA000A16981420ED82078012834D16078012889
:104DB00003D0A078012802D02DE0206C00E0E06B49
:104DC000606310E06563206C584501D80322E281DE
:104DD000A0F2E9325A4501D20821E181B0F5FA6F1B
:104DE00001D90F20E081FDF769FE607A332812D1E6
:104DF000606B584501D80321E181A0F2E9315945A2
:104E000001D20821E181B0F5FA6F01D90F20E081CC
:104E10006563FDF753FEE769B7421BD21F4820497F
:104E20000068884216D200F05DFF00F0EBFD1D4ADD
:104E30001D4B00F08FF900221C4B00F05FFB00F0CF
:104E40009BF81B4908600146E06D00F007FE7F1CDF
:104E5000E761E065B7FBF8F008FB107038B9154959
:104E6000E06D00F05DFE00F01DFFE5656061B7429A
:104E700001D1E56102E0002F7FF45AAFFEF754FB49
:104E800056E70000000000200010004094030020BE
:104E90000014004050020020000C0140A800002037
:104EA000C0D40100C2120F289BDE3A4000004E40E1
:104EB000BC00002000803B452DE9F04D07460E4622
:104EC00000F050FC04460D463A46334600F0A4FC80
:104ED000DFF86CA0DFF86CB01B4B0746884616F075
:104EE000004F4FF000020AD000F0CCFA0AD900229D
:104EF0005B463846414600F0FFFB1BD212E000F053
:104F0000C1FA08D2002253462046294600F090FC00
:104F100004460D460EE000225B463846414600F04E
:104F2000EBFB07D8002253462046294600F056F8EE
:104F300004460D463146204665F31E01BDE8F08D5E
:104F40000000F03F0000E03F0000E0BF10B5002986
:104F50000AD00878002807D005487844FBF7B2FB50
:104F6000002801D0002010BD0248784410BD000088
:104F70006E1000006610000021F00042A2F16052A5
:104F8000B2F5801F01F0004328BFD2F17F6C0BD92E
:104F90005FEA001C43EAC20242EB507018BF704740
:104FA00028BF20F001007047B2F5801FBCBF184633
:104FB00070474FEA410C1CF5001F02D2084600F072
:104FC000EABE70B500F044FB00000089FFF7F6BFB1
:104FD0004FF00040A0F580007047000010B591EA46
:104FE000030F48BF83F0004300F12A84841A71EB59
:104FF000030C05D2121943EB0C03001B61EB0C01EF
:10500000DFF824E14FEA1154A4EB135C1EEA430FCE
:1050100018BF9EEA445F73D023EA0E03DCF1200E32
:1050200021EA045143F4801332D322FA0CFE10EB30
:105030000E0023FA0CFE41EB0E01CCF1200E03FA18
:105040000EFE10EB0E0051F10001B1F5801FCCF106
:10505000200E32D201EB045112FA0EF2BDE81040DC
:1050600058BF7047401C38BF5FEA420218BF704704
:10507000002814BF20F0010041F100014FEA410374
:1050800013F5001F38BF7047A1F1C04100F02EBBDF
:10509000012A43EB0302ACF1200CDCF11F0E32BFFE
:1050A0004FF0000E23FA0CF310EB030041EB045118
:1050B000B4EB115FD0D0A1EB045101F58011490888
:1050C0005FEA300001EB04510ED350F1000038BF0D
:1050D00012FA0EFE08D1BDE81040C9E7401C38BFE7
:1050E0005FEA4202CAD1C3E7BDE810404FEA41037C
:1050F00013F5001F38BF7047A1F1C04100F0F6BAA8
:105100009EEA445F08D011EA5E0FBDE8104004BF7C
:1051100001F0004100207047BDE8104070B500F07C
:1051200097FA00BF64FBBE3E0000E0FF02494FF06B
:10513000000000F0AABE00BF0000F87F491058BF71
:10514000C1F140415B1058BFC3F140438B42EFF3C4
:10515000008070472DE9C04130B4DFF8A0C23CEABE
:10516000111418BF3CEA131400F0EC8081EA030527
:105170001CEA111444EAD57418BF1CEA131500F098
:10518000C780A4EB05044FF0004545EAC12145EA7C
:10519000C32341EA505143EA525304F17F749942C8
:1051A00004F500344FEAC0204FEAC22208BF904203
:1051B00000F09C804FEA13650FF24016765D4FEACF
:1051C000134506FB05F7C7F1807706FB07F74FEAA3
:1051D000D737A7FB03687642C8F58038A7FB06CE11
:1051E00038BFA8F1010807FB08E64FF0000EA6FB48
:1051F000028CE6FB03CEDCF1000CCEF1004E38BF92
:10520000AEF1010EA6FB0C584FF000074FF0000561
:10521000E6FB0E87A1FB08C6A0FB07CE16EB0E0629
:1052200045F10005E1FB076515F1E04E7EBFA4F5F1
:1052300080345FEA46066D4116F1800745F10005AE
:105240004FEA17274FEA066647EA0567A6F1DE46EA
:10525000B6F1805F4FEA15251FD9384624F0010CBE
:1052600005EBC471BCF1FE6F01EB0C1102D8F0BC70
:10527000BDE8008124425CBF01F5801E9EEAC47F28
:1052800002D4F0BCBDE80081244238D4F0BCA1F1C6
:10529000C041BDE8004100F029BA4FEAD22242EAFB
:1052A00043524FEAD323A7FB02864FEAD02040EABD
:1052B000415007FB03661EEA0E0F4FEAD12105FBA2
:1052C000026658BFA6EB0056B6EB00564FEA520EE8
:1052D0004EEAC37E18EB0E0E56EB530EBDD518EBFF
:1052E00002085E417F1C55F10005B6E74FF48015BA
:1052F0004FF000074FF000064FF00008ADE7F0BC9C
:105300004FF0000001F1C04101F00041BDE8008113
:1053100011EA0C1F0CEA131500D00CE013EA0C1F65
:1053200000F025804FF00000F0BC81EA030101F09D
:105330000041BDE80081F0BCBDE8004181EA030105
:1053400000F0D4B9F0BCBDE8004170B500F080F9C0
:10535000097EFC3E00F007B881EA03014FF000002F
:1053600001F00041704781EA030100F0BFB9F0BCD1
:10537000BDE800414FF0000021497047FFFDFBF9F7
:10538000F7F5F4F2F0EEEDEBE9E8E6E4E3E1E0DE78
:10539000DDDBDAD8D7D5D4D3D1D0CFCDCCCBCAC8EA
:1053A000C7C6C5C4C2C1C0BFBEBDBCBBBAB9B8B711
:1053B000B6B5B4B3B2B1B0AFAEADACABAAA9A8A804
:1053C000A7A6A5A4A3A3A2A1A09F9F9E9D9C9C9BD2
:1053D0009A9999989797969595949393929191907D
:1053E0008F8F8E8E8D8C8C8B8B8A8989888887870E
:1053F0008685858484838382828181800000FF0783
:105400000000F87F4FEA1153A3F58063D3F11E0328
:10541000A8BFD3F1200C08DB4FF0004242EAC122C2
:1054200052EA505232FA03F0704709420BD4102B63
:10543000C4BF0020704703F5787CBCF1FF3F05D066
:105440004FF0FF3070474FF00000704770B500F02C
:10545000FFF800BF4992248000207047F0E7B0FABF
:1054600080F310FA03F10AD0C3F11D0303F5806342
:105470004FEA41504FEA035202EBD12170474FF0FF
:105480000000704751EA030C17D41CF5801F58BF69
:10549000BCF5801F00F10680994218BF704708BF15
:1054A0009042704707D711F5801F58BF13F5801F32
:1054B00019D499427047894270471CF5801F08D55E
:1054C000BCF5801FF7D58B4218BF704708BF8242DA
:1054D00070474FF4001C1CEB410F38BF1CEB430F0F
:1054E00001D28B42704770B500F0B2F892244900A7
:1054F0004FF000514FF08053FFF720BEDFF848C156
:1055000070B51CEA111E1EBF1CEA13159EEA0C0F93
:1055100095EA0C0F00F06F8081EA030423EA4C1334
:105520004EEAD47E21EA4C1141F4801143F48013F9
:10553000AE44A1FB024CA0FB0365AEF17F7E3619A1
:1055400055EB0C05A1FB034C4CF10003A0FB021C26
:1055500016EB0C06654153F10003094218BF46F0F3
:10556000010613F4007F0BD14FEA03314FEA0530F7
:10557000340341EA155140EA16506FF003020AE085
:105580004FEAC3214FEAC520F40241EA555140EAEF
:1055900056506FF0020202EB2E4201EB025585EAF3
:1055A000CE710AD05FEA440C18BF24F0004450F1D9
:1055B000000041F1000120EAD47040F2FE7C624517
:1055C00000D270BDA84214BF4FF080444FF0404459
:1055D000002E08BF0024BEF1806FA8BFA1F1C0411A
:1055E000BDE8704080F282804FF0000001F1C041C0
:1055F00001F0004170479EEA0C0F0CEA131518BF2A
:1056000095EA0C0F06D04FF0000081EA030E0EF071
:10561000004170BD00F01CF88900013E00F007B8A1
:1056200000F009B84FEA430C5FEA5C5C08D081EAFD
:10563000030100F05BB84FEA410C5FEA5C5CF6D115
:105640004FF00000014970470000FF070000F87F9D
:105650000EF1020E2EF0030E5EF8046B364205D4F6
:10566000012A43EB030515F5001F12D8012841EB71
:10567000010C1CF5001F0CD80ED14FEAD17C15F59A
:10568000001F0CEB4C0C0CF1020C08BF4CEBD37C54
:1056900004E04FF0080C01E04FEAD37C0CEB4C0522
:1056A00026FA05F606F00706B6F1040C06D20EEB54
:1056B000860CBDE870404CF0010C6047DFE80CF050
:1056C000090B02024FF000414FF00000A1F500214C
:1056D00070BD19461046012851EB010418BFD4F5DE
:1056E000001484BF002001F0004170BD0808A0F53F
:1056F00000114FEA3101704753EA010C17D41CF531
:10570000801F58BFBCF5801F00F106808B4218BF78
:10571000704708BF8242704707D713F5801F58BFF4
:1057200011F5801F19D48B4270479B4270471CF5BE
:10573000801F08D5BCF5801FF7D5994218BF704768
:1057400008BF904270474FF4001C1CEB430F38BF5A
:105750001CEB410F01D2994270470FB40CBC03BC43
:10576000FFF7C1BE5FEA410C5FEA5C5CACF58063A9
:105770005B1C39D4D3F1340240F34580B2F12003ED
:1057800014DA4FF0010C0CFA02FCACF101030340F7
:10579000B3EB5C0220EA030008BF10EA0C0F98BFCD
:1057A000704710EB0C0041F1000170470AD0C3F1C3
:1057B000200201FA02FC012821FA03F101FA03F1A7
:1057C0004CF100004FF0010C0CFA03FCACF10103AA
:1057D000B0F1004F21EA030108BF11EA0C0F4FF0AE
:1057E000000088BF61447047B3F1FF3F28BF50EA13
:1057F000C12C01F000414FF0000084BF41F07C510A
:1058000041F470017047B3F5806FB8BF704770B551
:10581000FFF71EFF40DBB6BE91EA030F10B581F023
:1058200000413FF5E3AB83F0004300F009B800000E
:1058300010B591EA030F48BF83F000433FF5D6ABA4
:10584000841A71EB030C07D212198CF0004C43EB55
:105850000C03001B61EB0C01DFF8A4E14FEA1154CB
:10586000A4EB135C1EEA430F18BF9EEA445F00F0EE
:10587000B08023EA6E03524221EA0451C3EB6E0367
:1058800038BF5B1EDCF1200E25D322FA0CFE10EB94
:105890000E0043FA0CFE41EB0E01CCF1200E03FA90
:1058A0000EFE10EB0E0051F10001CCF1200E29D4B8
:1058B00012FA0EF201EB0451BDE8104058BF7047D8
:1058C000401C1CBFB2F1004F704700280CBF491CA0
:1058D00020F00100704712EB020E43EB030218BFE9
:1058E0004FF0010E4EEA4202ACF1200CDCF11E0E2C
:1058F00054D943FA0CFE10EB0E0051F1FF31CCF1FC
:105900001E0ED5D50EF1010E12FA0EFE404141EBEE
:10591000010101EB445C5FEA5C5C10D910EBDE70C6
:1059200001EB045138BFBEF1004FBDE8104018BF75
:10593000704700280CBF491C20F00100704730D28E
:105940004FEAD42C11F5001124F400641BD0B1FAF5
:1059500081F20B3AA41AA41ED2F12003914030FA2E
:1059600003F31943904001EBCC71002C01EB04517F
:10597000BDE81040A8BF704701F1C0414FF00000E2
:1059800001F000417047B0FA80F310FA03F100D142
:1059900010BDE41A173C4805C90AE4E701EB0451BD
:1059A00010BD491001EB0451BDE810404FEA300032
:1059B00002E04FF0000170474A0008BF0042F8D0F3
:1059C000B2F5001F28BF704701F000414FF0000002
:1059D00070479EEA445F07D011EA5E0FBDE81040B1
:1059E00004BF002100207047BDE8104070B5FFF7EC
:1059F0002FFE00BF40DFF63E83F0004110467047A7
:105A00000000E0FF43004FEAD30C4FEA3C0C434058
:105A10001FBF40070CF1605113F0FE4F70471CF0A0
:105A2000006F03D100200CF0004170470CF00043E0
:105A300043EA507010B540EACC0000F066F900BFB0
:105A4000000000924FEA0001FFF750BE4FF0004106
:105A50004FF00000A1F500217047000090EA010F0F
:105A600048BF81F0004100F1A281421A3CBF801A78
:105A700089184FEAD0524FF07F4C1CEA410FA2EB3D
:105A8000D15318BF9CEA026F00F03B804FF0004CEE
:105A90004CEA00204CEA012121FA03FC10EB0C0C2B
:105AA0001ED202F1FF325FEA1C2040EBC25038BF29
:105AB00070471CF07F0F4FEA400C18BFBCF17F4FBE
:105AC00038BF7047C3F12003994008BF20F00100A0
:105AD000BCF17F4F38BF7047A0F1C04000F05BB908
